:020000040000FA
:0400000080EF00F09D
:020004000000FA
:04000800B2EF00F063
:100100008BEC00F093EC00F097EC00F0A2EC00F028
:10011000BA8489EF00F0000E5C6F5D6F949294904A
:10012000949493801200F292F288F28E1200606B27
:10013000F90EBB6E6051BE6E000EBA6EBC6A0C0E3C
:10014000BD6E1200A9EC00F0606B8B828B808B94EB
:1001500012008C0EF66E010EF76E000EF86E08009F
:1001600061911200F2B2B6EC00F0110061B1A9EC9D
:1001700000F00900F80EF5606181F550606F605184
:10018000BE6EC5EC00F0F29212001200002040603A
:0601900080A0C0E0F900B0
:020000040030CA
:0100000000FF
:0100010021DD
:010002005F9E
:010003003CC0
:01000500D129
:01000600A059
:010008000FE8
:01000900C036
:01000A000FE6
:01000B00E014
:01000C000FE4
:01000D0040B2
:00000001FF
